:020000040800F2
:10000000E0060020890100089B1400082B1200085C
:10001000991400084B040008951600080000000021
:10002000000000000000000000000000D5150008DE
:100030004D040008000000009D140008D7150008BA
:10004000A3010008A3010008A3010008A301000800
:10005000A3010008A3010008A3010008A3010008F0
:10006000A3010008A3010008A3010008A3010008E0
:10007000A3010008A3010008A3010008A3010008D0
:10008000A3010008A3010008A3010008A3010008C0
:10009000A3010008A3010008A3010008A3010008B0
:1000A000A3010008A3010008A3010008A3010008A0
:1000B000A3010008A3010008A3010008A301000890
:1000C000A3010008A3010008A3010008A301000880
:1000D000A3010008A3010008A3010008A301000870
:1000E000A3010008A3010008A301000800F002F822
:1000F00000F03AF80AA090E8000C82448344AAF188
:100100000107DA4501D100F02FF8AFF2090EBAE885
:100110000F0013F0010F18BFFB1A43F0010318473B
:10012000EC1500000C160000103A24BF78C878C106
:10013000FAD8520724BF30C830C144BF04680C60ED
:10014000704700000023002400250026103A28BF35
:1001500078C1FBD8520728BF30C148BF0B60704739
:100160001FB51FBD10B510BD00F035F91146FFF7E2
:10017000F7FF01F0A1FA00F053F903B4FFF7F2FF23
:1001800003BC00F05BF900000948804709480047BC
:10019000FEE7FEE7FEE7FEE7FEE7FEE7FEE7FEE737
:1001A000FEE7FEE704480549054A064B7047000094
:1001B0002B160008ED000008E0000020E0060020FB
:1001C000E0020020E002002053EA020C00F0698007
:1001D0002DE9F04B4FF00006002B1FBFB3FA83F55B
:1001E00003FA05F424FA05F65E4012BF1643B2FA8C
:1001F00082F502FA05F4C5F120051EBF22FA05FCBE
:1002000044EA0C04203556EA044C4FEA144418BF63
:10021000641C4FF000084FF00009904271EB030C92
:1002200039D3002919BFB1FA81F701FA07F6B0FAFC
:1002300080F700FA07F6C7F120071EBF20FA07FC77
:1002400046EA0C062037B6FBF4FCA7EB0507103F87
:1002500007F01F0BCBF120060CFA0BFB2CFA06F66D
:1002600044BFB3460026202FA4BF5E464FF0000BCC
:100270005BEA060C08BF4FF0010B19EB0B09ABFB57
:10028000027C48EB0608C01B06FB02CC0BFB03CC30
:1002900071EB0C01C1E70B46024641464846BDE8FA
:1002A000F08B13B54FF000004FF00001AFF300806A
:1002B000BDE81C40704700000FB41CB5074B06AAF0
:1002C0007B4469460090059800F059F80020694683
:1002D00000F068F81CBC5DF814FB0000E1000000B1
:1002E00010B5431C02E010F8011B71B18107FAD16F
:1002F0004FF0013202C88C1A8C4314EAC211F9D0B3
:10030000C01A0A0603D0C01E10BDC01A10BD0A04D0
:1003100001D0801E10BD0902FCD0401E10BD4FF060
:10032000000200B5134694469646203922BFA0E845
:100330000C50A0E80C50B1F12001BFF4F7AF090751
:1003400028BFA0E80C5048BF0CC05DF804EB890042
:1003500028BF40F8042B08BF704748BF20F8022B85
:1003600011F0804F18BF00F8012B7047704770479D
:100370007047000001694A1C02610878704700B5A7
:100380008FB0CDE901310021059105497944CDE9CE
:1003900003101146684600F00AF80FB000BD0000D7
:1003A000E5FFFFFF0A6802F8010B0A6070472DE9BC
:1003B000F04106460024D6E90170F56880463046D3
:1003C00003E04146B847641C3046A8470028F8D1EE
:1003D0002046BDE8F081754600F02CF8AE460500D9
:1003E0006946534620F00700854618B020B5FFF750
:1003F000D9FEBDE820404FF000064FF000074FF057
:1004000000084FF0000B21F00701AC46ACE8C00932
:10041000ACE8C009ACE8C009ACE8C0098D4670473B
:1004200010B50446AFF300802046BDE81040FFF74A
:10043000A4BE0000004870477C000020014918203D
:10044000ABBEFEE7260002007047FEE770470000E3
:1004500070B5044600F004F90546601C02D004485B
:100460000078044400F0FCF8401BA042FAD370BDB1
:10047000000000202DE9F84FDFF8B891002409F1C1
:10048000040A0AF1040B23460F270BF1040EC9E0FE
:100490000125A5402A40AA427DD1674ED1F804C06B
:1004A000ACEB0608B44532D014DCBCF1030F3AD0F3
:1004B00009DCBCF1000F2AD0BCF1010F1CD0BCF14B
:1004C000020F31D11DE0BCF1110F17D0BCF1120F9A
:1004D0002AD119E0B8F5881F19D006DCB8F5803F9D
:1004E00015D0B8F5801F1FD111E0B8F5001F0ED050
:1004F000B8F5041F18D10AE0CB6815E0CB681B1DC6
:1005000012E0CB6808330FE0CB680C330CE08B684B
:100510002BB1012B4FF0080303D0456104E0042305
:1005200002E0056100E00023FF2A01D8064601E051
:1005300000F104064FEA840501D9A5F12005D6F89B
:10054000008007FA05FC28EA0C0803FA05F548EADA
:100550000508C6F800804D68ED0062D5374DAE69DC
:1005600046F00106AE61AD6924F0030605F0010511
:100570000095334D06EB050CDCF80850A607360F46
:1005800007FA06F825EA0805DFF8B880404503D1E8
:100590004FF0000817E044E0DFF8AC80404502D19E
:1005A0004FF001080FE0DFF8A480404502D14FF082
:1005B000020808E0DFF89880404502D14FF00308B8
:1005C00001E04FF0040808FA06F848EA0508CCF8FC
:1005D00008804D68D9F80060ED034D4601D51643FB
:1005E00000E096432E604D68DAF80060AD03554692
:1005F00001D5164300E096432E604D68DBF800609D
:10060000ED025D4601D5164300E096432E604D682D
:10061000DEF80060AD02754601D5164300E0964352
:100620002E60641C0D682A46E5407FF431AFBDE8BA
:10063000F88F00000004014000001110001002407B
:100640000000014000080140000C01400010014082
:10065000001401400AB1016170470904FBE7000082
:10066000014880687047000000000020024881684F
:10067000027811448160704700000020074810B5DF
:10068000016841F010010160032000F067F80F20BD
:1006900000F006F800F024F8002010BD0020024011
:1006A00070B50D4D04464FF47A712878B1FBF0F027
:1006B0000A490968B1FBF0F000F0A3FD48B9102C1D
:1006C00007D200222146501E00F028F800206C605E
:1006D00070BD012070BD0000000000200C00002053
:1006E0000C4808B5816941F001018161816901F01F
:1006F00001010091C16941F08051C161C06900F000
:10070000805000900448416821F0E06141F00071A0
:10071000416008BD0010024000000140F0B40E4BE3
:100720001B680C46C3F30223C3F10705042D00D94F
:100730000425191D072901D2002300E0DB1E012634
:1007400006FA05F1491E214099409E40761E16404A
:100750003143F0BC00F09FBF0CED00E0064900F013
:10076000070208684FF6FF03184040EA0220034AD8
:1007700010430860704700000CED00E00000FA052F
:100780002DE9F0470F46050061D0434E306800F078
:100790000700B84209D2306820F0070038433060C3
:1007A000306800F00700B84251D128683B4C8107FF
:1007B00012D5400703D5606840F4E0606060287897
:1007C000000703D5606840F4605060606068A96805
:1007D00020F0F000084360602878C00728D06868DF
:1007E000012810D02168022810D0890700292EDAAC
:1007F000616821F0030101436160FFF731FF80462A
:1008000041F288390DE021688903EFE78901EDE7BE
:10081000FFF726FFA0EB0801494502D90320BDE8F8
:10082000F0876068696800F00C00B0EB810FEFD1D1
:10083000306800F00700B8420BD9306820F007009C
:1008400038433060306800F00700B84201D0012022
:10085000E5E72878400705D56068E96820F4E0609E
:10086000084360602878000706D56068296920F48D
:10087000605040EAC100606000F018F86168084A02
:10088000C1F30311515CC84006490860064800687E
:10089000FFF706FF0020C2E70020024000100240E0
:1008A000FC1600080C0000200400002012A185B0F6
:1008B0000FC98DE80F0014A0144A00680490516815
:1008C000134801F00C03042B10D0082B0ED1C1F3F8
:1008D0008343C9031DF803000AD5516804AAC1F374
:1008E0004041515C0A4A5043B0FBF1F005B07047FB
:1008F00008494843FAE7000002030405060708090F
:100900000A0B0C0D0E0F1010010200000010024027
:1009100000127A0000093D002DE9F84F040070D064
:100920002078C04DC00749D06868C0F38100012815
:1009300007D06868C0F38100022809D16868C00345
:1009400006D52868800339D560680028E7D035E0EF
:100950006068B0F5803F0BD010B1B0F5A02F11D07A
:10096000286820F480302860286820F4802002E085
:10097000286840F480302860606890B1FFF770FE0E
:1009800006460AE0286840F480202860F0E700BFAF
:10099000FFF766FE801B642873D828688003F7D5AC
:1009A0000CE0FFF75DFE064605E000BFFFF758FECE
:1009B000801B6428F0D828688003F7D420789A4EEA
:1009C00080074FF001094FF0000839D5686810F032
:1009D0000C0F07D06868C0F38100022809D168684D
:1009E000C00306D42868800714D52069012808D1DF
:1009F00010E02069B0B1C6F80090FFF731FE07465D
:100A000005E00AE1FFF72CFEC01B0228C4D82868C5
:100A10008007F7D52868616920F0F80040EAC10036
:100A200028600DE0C6F80080FFF71AFE074604E0D4
:100A3000FFF716FEC01B022823D828688007F7D4CA
:100A4000207800072CD57948A169D9B1C0F8009069
:100A5000FFF706FE074604E0FFF702FEC01B022870
:100A60000FD8686A8007F7D571484FF4FA510068CB
:100A7000B0FBF1F0009000BF0098411E0091FAD247
:100A80000EE080E0C0F80080FFF7EAFD074604E0D2
:100A9000FFF7E6FDC01B022875D8686A8007F7D407
:100AA0002078400760D5E8690027C00008D4E869CD
:100AB00040F08050E861E869012700F08050009024
:100AC0005C480168C90513D40168834641F480710C
:100AD0000160FFF7C5FD824606E000BFFFF7C0FDDD
:100AE000A0EB0A0064284ED8DBF80000C005F5D55D
:100AF000E06801280AD008B1052813D0286A20F040
:100B000001002862286A20F0040002E0286A40F010
:100B100001002862E06841F2883B98B1FFF7A0FD30
:100B200082460BE0286A40F004002862EEE700BF2E
:100B3000FFF796FDA0EB0A0159455AD8286A8007AD
:100B4000F6D50CE0FFF78CFD824605E0FFF788FD47
:100B5000A0EB0A0159454CD8286A8007F6D41FB18A
:100B6000E86920F08050E861E06988B36968C1F302
:100B70008101022944D00228C6F8608004D0FFF722
:100B80006FFD044638E034E0FFF76AFD074604E0F5
:100B9000FFF766FDC01B02282BD828688001F7D418
:100BA000206AB0F5803F05D16868A16820F4003064
:100BB00008436860D4E908010843696821F47411A6
:100BC00008436860C6F86090FFF74AFD044606E0F7
:100BD00025E000BFFFF744FD001B022809D8286864
:100BE0008001F7D51BE000BFFFF73AFD001B02288C
:100BF00002D90320BDE8F88F28688001F4D40EE004
:100C00000128F7D06868226A00F48031914204D14B
:100C1000616A00F47010884201D00120EAE70020E8
:100C2000E8E7000000100240000042428004424217
:100C30000C0000200070004090F85100704770B523
:100C4000040009D0606A002540B125616561A56294
:100C500094F8510040B10CE0012070BD6068B0F51F
:100C6000827FF4D0E561F2E784F85050204600F02E
:100C70003FF8022084F851002068016821F040010B
:100C80000160A088218900F4827001F404410843C6
:100C9000A18901F400610843217C01F002010843AD
:100CA000217D01F001010843218B01F4007108430B
:100CB000217F01F03801084394F8201001F08001F1
:100CC0000843218D01F40051084321680860A069A0
:100CD000042101EA1040216848602068C16921F4BC
:100CE0000061C1616565012084F85100002070BD7C
:100CF00030B585B0002400940194029403940068F8
:100D00001449884223D11448816941F4805181619A
:100D1000816901F480510491816941F0040181618C
:100D200080690E4D00F004000490A0200090022085
:100D300001900320039069462846FFF79BFB402063
:100D4000CDE90004694628460294FFF793FB05B0FD
:100D500030BD00000030014000100240000801409A
:100D60002DE9F84F044640680025984616460F4680
:100D70004FF0040BB0F5827F01D1A06888B194F8E0
:100D80005000012818D0012084F85000FFF768FCBB
:100D9000814694F851004FF0000A01280ED0022538
:100DA00082E084F851B013460A462046CDF8008010
:100DB00000F036F9BDE8F88F0220FBE7002F72D073
:100DC000002E70D084F851B0C4F854A0A763A68751
:100DD000E687C4F830A0A4F834A0A4F836A0C4F87C
:100DE00040A0C4F844A0A068B0F5004F09D1206825
:100DF000016821F0400101602068016821F4804110
:100E0000016020680168490603D4016841F040018F
:100E10000160E068D8B139E020688168C90709D06D
:100E2000007BA16B0870A06B401CA063E08F401E8C
:100E3000E0870CE0FFF714FCA0EB0901414503D368
:100E4000B8F1FF3F03D036E0B8F1000F33D0E08FA8
:100E50000028E1D11DE020688168C90709D0C06879
:100E6000A16B0880A06B801CA063E08F401EE08710
:100E70000CE0FFF7F5FBA0EB0901414503D3B8F106
:100E8000FF3F03D017E0B8F1000F14D0E08F002827
:100E9000E1D14A464146204600F001FB08B120203E
:100EA0006065606D00B10125012084F8510084F86F
:100EB00050A028467EE70325F6E72DE9F84F0446C3
:100EC00090F8500000271D461646894601280DD08F
:100ED0004FF0010B84F850B0FFF7C2FB804694F846
:100EE0005100BA46012804D0022793E00220BDE851
:100EF000F88FB9F1000F73D0002E71D0032084F861
:100F00005100C4F854A0C4F83090A686E686C4F810
:100F100038A0A4F83CA0A4F83EA0C4F844A0C4F8AB
:100F200040A0A068B0F5004F09D12068016821F009
:100F3000400101602068016841F48041016020683F
:100F40000168490603D4016841F040010160E0688E
:100F5000B0F5006F606803D030B3012E24D041E0BB
:100F600008B1012E1CD1206B21680088C86006E002
:100F700020688168890709D5216B0988C160206BC9
:100F8000801C2063E08E401EE08609E0FFF768FBCE
:100F9000A0EB0800A84202D3681C01D031E07DB369
:100FA000E08E0028E4D120E0206B216800780873EF
:100FB00006E020688168890709D5216B09780173EB
:100FC000206B401C2063E08E401EE0860AE0FFF7A5
:100FD00047FBA0EB0800A84203D3681C02D010E036
:100FE00017E06DB1E08E0028E3D142462946204645
:100FF00000F083FA08B120206065A06818B106E00F
:10100000FFE7032706E02068C16880680090606DF4
:1010100000B1012784F851B084F850A0384666E743
:101020002DE9F84F044690F8500000270A9E1D460F
:1010300092468B464FF0010901280ED0012084F81A
:101040005000FFF70DFB804694F8510061680128BD
:101050000CD0B1F5827F07D102E00220BDE8F88F05
:10106000A16809B9042801D00227C2E0BBF1000F32
:1010700027D0BAF1000F24D01DB394F851000428F2
:1010800002D0052084F8510000206065C4F838A023
:10109000E587A587C4F830B0E586A586206460643E
:1010A00020680168490603D4016841F040010160ED
:1010B000E068B0F5006F606805D0E8B3012D46D058
:1010C0007FE0012795E008B1012D39D1206B21681F
:1010D0000088C860206B801C2063E08E401EE08684
:1010E0002EE02068816889070FD5E18E69B1B9F1DA
:1010F000010F0AD1216B0988C160206B801C20631D
:10110000E08E401EE0864FF0000920688168C90724
:101110000CD0E18F51B1C068A16B0880A06B801C1E
:10112000A063E08F401EE0874FF00109FFF798FAB7
:10113000A0EB0800B04200E009E001D3701C50D1E0
:10114000E08E0028CDD1E08F0028CAD13FE0206B8F
:10115000216800780873206B401C2063E08E401EDD
:10116000E0862EE02068816889070FD5E18E69B19D
:10117000B9F1010F0AD1216B09780173206B401C72
:101180002063E08E401EE0864FF0000920688168F1
:10119000C9070CD0E18F51B1C068A16B0870A06B7A
:1011A000401CA063E08F401EE0874FF00109FFF76D
:1011B00057FAA0EB0800B04202D3701C01D010E037
:1011C0007EB1E08E0028CDD1E08F0028CAD1424602
:1011D0003146204600F091F928B1012720206065B2
:1011E00007E0032705E0A06818B92068C168806897
:1011F0000090012084F85100002084F85000384607
:101200002CE710B5401EB0F1807F01D3012010BD46
:101210004FF0E02460610F21601700F03CFA0020DD
:10122000A06107202061002010BDFEE710B51D4C15
:10123000002201212046FFF70DFA0A20FFF708F9E6
:10124000012211462046FFF705FA422000F082F8FD
:10125000122801D0012010BD8021012000F0CEF81D
:101260001148002100F0A8F800210E2000F0C6F877
:1012700000210F2000F0C2F80C2000F06BF840F0C5
:1012800003010C2000F0BAF80421262000F0B6F883
:101290008F21092000F0B2F88121012000F0AEF882
:1012A000002010BD000C0140400ECF192DE9F04187
:1012B00007460C46222000F04DF806462044FF2841
:1012C00001DDC6F1FF04002504E0795D002000F097
:1012D00095F86D1CA542F8DB3019BDE8F041C1B2AC
:1012E000222000F08BB810B5012000F033F8C04385
:1012F000800711D08121012000F080F872211D208B
:1013000000F07CF800210D2000F078F80021222068
:1013100000F074F8002010BD012010BD10B5642449
:101320008321012000F06AF803E0641E14F0FF043A
:101330000AD0122000F00EF80007F6D5082112207E
:1013400000F05CF8002010BD0120FFF781F80120BB
:1013500010BD00007CB500F07F008DF80400002077
:10136000134C8DF80000024610212046FFF772F959
:101370004FF47A752B46012201A90E48FFF79DFD17
:101380000C48FFF759FC0128FAD12B460122694687
:101390000848FFF7E5FC0748FFF74EFC0128FAD1A3
:1013A000012210212046FFF755F99DF800007CBD71
:1013B000000801402400002070B5C90441EA503102
:1013C000C0040D4A0023FEF7FFFE0446000C0D4644
:1013D00040EA0140C1B2062000F010F8200A40EABD
:1013E0000560C1B2072000F009F8E1B2BDE8704025
:1013F000082000F003B800000048E80133B581B0D0
:1014000040F08000124C8DF8000000221021204690
:10141000FFF720F94FF47A752B46012269460D48F3
:10142000FFF74BFD0B48FFF707FC0128FAD12B46CD
:10143000012202A90748FFF740FD0648FFF7FCFB21
:101440000128FAD1012210212046FFF703F93EBD01
:1014500000080140240000200E4810B50C4901602E
:101460004FF48271416000218160C1604FF40072CD
:101470000161C0E90512C1610162416281620A2114
:10148000C162FFF7DCFB002801D072B6FEE710BD99
:101490000030014024000020FEE7FEE77047F8B569
:1014A000044640684FF48273984217D1A0684FF405
:1014B0008065B0F5004F01D0A8420FD120680668C2
:1014C00026F0400606606068984207D1A068A842EE
:1014D00004D100920B460022012103E000920B464A
:1014E00000228021204600F019F8002804D0606D09
:1014F00040F0200060650320F8BD38B50B4600922F
:1015000004460022802100F009F8002804D0606D14
:1015100040F020006065032038BD00002DE9F8434D
:101520001E46914688460446089DFFF799F8401BE1
:10153000351AFFF795F8074625480068C0F3CB3009
:10154000684338E0701C37D0FFF78AF8C01BA84208
:1015500003D215B1009860B32CE02068416821F0F7
:10156000E00141606068B0F5827F0BD1A068B0F502
:10157000004F02D0B0F5806F04D12068016821F0DF
:1015800040010160A06AB0F5005F09D120680168E0
:1015900021F4005101602068016841F400510160AC
:1015A000012084F85100002084F850000320BDE899
:1015B000F8830025401E00902068816838EA010009
:1015C00004D000214945BDD10020F0E70121F9E711
:1015D0000C0000207047FFF749B810B590B02821E3
:1015E0006846FEF79CFE14210AA8FEF798FE02202A
:1015F0000090012004901020002405900794684674
:10160000FFF78AF908B172B6FEE70F20CDE90A04A8
:101610000C940D9400210AA80E94FFF7B1F800284D
:1016200001D072B6FEE710B010BD704730B585B07E
:10163000FFF724F8FFF7D1FF002414480094019429
:1016400002940394816941F0040181618069104D25
:1016500000F004000490224610212846FEF7FAFF0D
:10166000102000900120CDE901040220039069467A
:101670002846FEF7FFFEFFF7EFFE05B02846BDE85F
:10168000304001221021FEF7E5BF000000100240AB
:1016900000080140FEE70907090E002804DB00F1FD
:1016A000E02080F80014704700F00F0000F1E02007
:1016B00080F8141D70470000FFF7B8FFFFF7B6FD74
:1016C0000AA10D48FEF7F8FD4FF47A74FFF70BFE00
:1016D0000948FEF705FEC1B20748FFF7E7FDFFF72F
:1016E0001DFE2046FEF7B4FEF0E70000536D617268
:1016F00074204772696400001000002000000000A0
:101700000000000001020304060708092C17000866
:101710000000002010000000280100083C1700080D
:1017200010000020D0060000440100080100000065
:0C17300010000000000000000024F40085
:04000005080000ED02
:00000001FF
